:100000000C942A000C943F000C943F000C943F0089
:100010000C943F000C943F000C943F000C943F0064
:100020000C943F000C943F000C943F000C943F0054
:100030000C943F000C943F000C943F000C943F0044
:100040000C943F000C943F000C943F000C943F0034
:100050000C943F0011241FBECFE5D8E0DEBFCDBF1A
:1000600010E0A0E6B0E0E4E2F5E002C005900D92F9
:10007000A236B107D9F70E9494010C9490020C9417
:100080000000811103C010926000089581E0809308
:100090006000089580916000811115C087E690E0AE
:1000A0000E94AD0042E060EB81E00E94AD0140E0C3
:1000B00060E481E00E94AD0123E040E060E081E087
:1000C0000E945702089540E060EB81E00E94AD017C
:1000D00042E060E481E00E94AD0123E040E060E0A6
:1000E00080E00E9457020E9429010E948E0142E096
:1000F00061E082E00E94AD0108952091600021112D
:1001000003C00E94C0000895BC0180E00E947D02EF
:1001100008950F931F93CF9390916000911119C090
:100120008B01C82F40E060E181E00E941602B80117
:100130008C2F0E946D0241E060E181E00E94160276
:100140002FEF80E792E0215080409040E1F700C01F
:100150000000CF911F910F910895CF93DF93EC0191
:1001600040E061E083E00E94AD0142E062E083E0B4
:100170000E94AD01CE010E948302DF91CF910895CC
:100180000E948A020895CF93C82F40E062E081E088
:100190000E94160240E064E081E00E941602C4FB67
:1001A000442740F960E180E00E941602C5FB442725
:1001B00040F960E280E00E941602C6FB442740F945
:1001C00060E480E00E9416024C2F441F4427441F25
:1001D00060E880E00E94160240E068E081E00E9452
:1001E000160287EC90E00197F1F700C0000041E0B3
:1001F00068E081E00E9416024C2F417060E180E0CF
:100200000E941602C1FB442740F960E280E00E9490
:100210001602C2FB442740F960E480E00E94160207
:10022000C3FB442740F960E880E00E94160240E0EA
:1002300068E081E00E94160287EC90E00197F1F7F8
:1002400000C0000041E068E081E00E941602CF910A
:10025000089542E06EE081E00E94AD0142E060EF6F
:1002600080E00E94AD0141E068E081E00E9416025A
:100270002FEF80E792E0215080409040E1F700C0EE
:10028000000040E062E081E00E94160240E064E08D
:1002900081E00E94160240E060E180E00E941602C8
:1002A00041E060E280E00E94160240E060E480E00D
:1002B0000E94160240E060E880E00E94160240E0E2
:1002C00068E081E00E94160287EC90E00197F1F768
:1002D00000C0000041E068E081E00E9416028CE26C
:1002E0000E94C30087EC90E00197F1F700C0000086
:1002F0008FE00E94C30087EC90E00197F1F700C007
:10030000000081E00E94C3008FE39FE10197F1F7B5
:1003100000C0000086E00E94C300089542E063E34D
:1003200083E00E94AD010895CF93DF9300D0CDB755
:10033000DEB7198280E00E9441000E944A00CE018F
:1003400001960E947D0089818823C9F3BE016E5FFA
:100350007F4F0E9489001982F2CF8130F9F030F08E
:100360008230A1F1833009F449C00895413049F049
:1003700018F0423079F008958AB3609568236ABB1B
:1003800008958AB3962F909589238ABB8BB3682BE7
:100390006BBB08958AB3682B6ABB0895413049F05E
:1003A00018F0423079F0089587B36095682367BBF1
:1003B000089587B3962F9095892387BB88B3682BC0
:1003C00068BB089587B3682B67BB0895413049F037
:1003D00018F0423079F0089584B36095682364BBC7
:1003E000089584B3962F9095892384BB85B3682B99
:1003F00065BB089584B3682B64BB0895413049F010
:1004000018F0423079F0089581B36095682361BB9C
:10041000089581B3962F9095892381BB82B3682B71
:1004200062BB089581B3682B61BB089581110FC031
:10043000442319F0413039F00AC09BB3262F209590
:1004400092239BBB24C09BB3962B9BBB20C08130C7
:1004500071F4442319F0413031F009C088B360953C
:10046000682368BB089588B3682B68BB0895823001
:1004700071F4442319F0413031F009C085B360951F
:10048000682365BB089585B3682B65BB08958330E9
:1004900069F4442319F0413031F0089582B3609536
:1004A000682362BB089582B3682B62BB08951DB8B0
:1004B00020FF709A9DB1440F440F906C492B30E29D
:1004C000639FB0011124642B30E1839FC00111248C
:1004D000862B2695282B2DB908958FB9779909C0B9
:1004E00084E695E09A95F1F70000779902C0815073
:1004F000C1F78FB1FB0180830895779B03C08FB153
:10050000FB018083089528E12AB926E820BD89B936
:1005100090BD08955F9B03C02CB1FC01208308951A
:04052000F894FFCF7D
:020524000200D3
:00000001FF
