:100000000C942A000C943F000C943F000C943F0089
:100010000C943F000C943F000C943F000C943F0064
:100020000C943F000C943F000C943F000C943F0054
:100030000C943F000C943F000C943F000C943F0044
:100040000C943F000C943F000C943F000C943F0034
:100050000C943F0011241FBECFE5D8E0DEBFCDBF1A
:1000600010E0A0E6B0E0E0EBF6E002C005900D92F3
:10007000A23DB107D9F70E9431020C9456030C94AB
:100080000000811103C010926000089581E0809308
:100090006000089580916000811114C087E690E0AF
:1000A0000E94C00042E060EB81E00E948A0240E0D2
:1000B00060E481E00E948A0223E040E060E081E0A9
:1000C0000C942B0340E060EB81E00E948A0242E046
:1000D00060E481E00E948A0223E040E060E080E08A
:1000E0000E942B030E9498010E94150242E061E0E9
:1000F00082E00C948A0220916000211102C00C94CD
:10010000D200BC0180E00C944303209160002111D7
:100110000C94FC01089580916000882359F00E949E
:1001200012022FEF80E792E0215080409040E1F7EB
:1001300000C00000089590916000992369F070E07C
:1001400090E00E940F022FEF80E792E02150804064
:100150009040E1F700C0000008959091600099235D
:1001600019F090E00C941A020895882321F0813050
:1001700011F441E001C040E061E082E00C94EF0244
:10018000CF93DF93EC0140E061E083E00E948A02BC
:1001900042E062E083E00E948A02CE01DF91CF91CB
:1001A0000C9449030C945003CF93C82F40E062E0B5
:1001B00081E00E94EF0240E064E081E00E94EF02F3
:1001C000C4FB442740F960E180E00E94EF02C5FBD8
:1001D000442740F960E280E00E94EF02C6FB44271A
:1001E00040F960E480E00E94EF024C2F441F442756
:1001F000441F60E880E00E94EF0240E068E081E098
:100200000E94EF0287EC90E00197F1F700C0000038
:1002100041E068E081E00E94EF024C2F417060E114
:1002200080E00E94EF02C1FB442740F960E280E0D9
:100230000E94EF02C2FB442740F960E480E00E9484
:10024000EF02C3FB442740F960E880E00E94EF0220
:1002500040E068E081E00E94EF0287EC90E00197C7
:10026000F1F700C0000041E068E081E0CF910C941C
:10027000EF02CF93C82F41E062E081E00E94EF02DD
:1002800040E064E081E00E94EF02C4FB442740F9B3
:1002900060E180E00E94EF02C5FB442740F960E284
:1002A00080E00E94EF02C6FB442740F960E480E052
:1002B0000E94EF024C2F441F4427441F60E880E057
:1002C0000E94EF0240E068E081E00E94EF0241E01E
:1002D00068E081E00E94EF024C2F417060E180E015
:1002E0000E94EF02C1FB442740F960E280E00E94D7
:1002F000EF02C2FB442740F960E480E00E94EF0275
:10030000C3FB442740F960E880E00E94EF0240E030
:1003100068E081E00E94EF0287EC90E00197F1F73E
:1003200000C0000041E068E081E0CF910C94EF0252
:1003300042E06EE081E00E948A0242E060EF80E0ED
:100340000E948A0241E068E081E00E94EF022FEF04
:1003500080E792E0215080409040E1F700C000002B
:1003600040E062E081E00E94EF0240E064E081E072
:100370000E94EF0240E060E180E00E94EF0241E075
:1003800060E280E00E94EF0240E060E480E00E94D2
:10039000EF0240E060E880E00E94EF0240E068E0A9
:1003A00081E00E94EF0287EC90E00197F1F700C036
:1003B000000041E068E081E00E94EF028CE20E94D0
:1003C000D40087EC90E00197F1F700C000008FE0C7
:1003D0000E94D40087EC90E00197F1F700C0000084
:1003E00081E00E94D4008FE39FE10197F1F700C004
:1003F000000086E00C94D4000F931F93CF938C01E0
:10040000CFEFCF5FF801EC0FF11D8081882319F049
:100410000E943901F6CFCF911F910F910895862B3D
:100420000C94D40081E00C94D40042E063E383E0B8
:100430000C948A02813021F0833049F441E008C0F5
:1004400040E063E083E00E94EF0241E006C040E04C
:1004500063E083E00E94EF0240E060E383E00C94FD
:10046000EF02CF93DF931F92CDB7DEB7198281E001
:100470000E9441000E944A00CE0101960E947B002A
:100480008981813381F40E948B0081E00E94AD005C
:1004900081E690E00E94850060E080EC0E949B0075
:1004A00081E790E033C0823381F40E948B0083E0C7
:1004B0000E94AD0080E890E00E94850060E080EC42
:1004C0000E949B008FE890E021C0833359F40E9482
:1004D0008B0080E00E94AD0081E00E94B5008FE9B2
:1004E00090E014C08433A1F40E948B0083E00E944A
:1004F000AD0080E00E94B5008FEA90E00E94850088
:1005000060E080EC0E949B0080EC90E00E948500FF
:100510001982B2CF8130F1F030F0823091F1833026
:1005200009F446C00895413041F018F0423071F0AE
:1005300008958AB3609568230BC08AB3962F90956F
:1005400089238ABB8BB3682B6BBB08958AB3682B56
:100550006ABB0895413041F018F0423071F00895BF
:1005600087B3609568230BC087B3962F9095892336
:1005700087BB88B3682B68BB089587B3682B67BBBC
:100580000895413041F018F0423071F0089584B37D
:10059000609568230BC084B3962F9095892384BB04
:1005A00085B3682B65BB089584B3682B64BB08953D
:1005B000413041F018F0423071F0089581B36095F8
:1005C00068230BC081B3962F9095892381BB82B39A
:1005D000682B62BB089581B3682B61BB08958111BC
:1005E0000DC0442319F0413029F008958BB3609574
:1005F000682302C08BB3682B6BBB0895813069F40C
:10060000442319F0413029F0089588B36095682398
:1006100002C088B3682B68BB0895823069F4442314
:1006200019F0413029F0089585B36095682302C020
:1006300085B3682B65BB0895833061F4442319F0BA
:10064000413029F0089582B36095682302C082B3D7
:10065000682B62BB08951DB820FF709A9DB134E0ED
:10066000439FA0011124906C492B90E2699FB00137
:100670001124642B30E1839FC0011124862B269521
:10068000282B2DB90895779B03C08FB1FB01808380
:10069000089528E12AB926E820BD89B990BD0895BA
:1006A0005F9B03C02CB1FC0120830895F894FFCF19
:1006B000024C4544203120262032203D204F464622
:1006C000004C4544203320262034203D204F4E004E
:1006D0004C4544203120262032203D204F4E004CF6
:1006E0004544203320262034203D204F46460047F5
:1006F000617261676520446F6F72204F4E21004721
:10070000617261676520446F6F72204F4646210019
:1007100057656C636F6D65204261636B204D6F6838
:020720002100B6
:00000001FF
